{
  "_format": "hh-sol-artifact-1",
  "contractName": "ScoreVault",
  "sourceName": "contracts/mock/ScoreVault.sol",
  "abi": [
    {
      "inputs": [
        {
          "internalType": "address",
          "name": "_verifierContract",
          "type": "address"
        }
      ],
      "stateMutability": "nonpayable",
      "type": "constructor"
    },
    {
      "anonymous": false,
      "inputs": [
        {
          "indexed": false,
          "internalType": "address",
          "name": "msgSender",
          "type": "address"
        },
        {
          "indexed": false,
          "internalType": "uint256",
          "name": "count",
          "type": "uint256"
        },
        {
          "indexed": false,
          "internalType": "string",
          "name": "encryptedData",
          "type": "string"
        }
      ],
      "name": "UpdateScore",
      "type": "event"
    },
    {
      "anonymous": false,
      "inputs": [
        {
          "indexed": false,
          "internalType": "address",
          "name": "msgSender",
          "type": "address"
        },
        {
          "indexed": false,
          "internalType": "bool",
          "name": "result",
          "type": "bool"
        }
      ],
      "name": "Verify",
      "type": "event"
    },
    {
      "inputs": [
        {
          "internalType": "address",
          "name": "_address",
          "type": "address"
        }
      ],
      "name": "getScore",
      "outputs": [
        {
          "internalType": "uint256",
          "name": "",
          "type": "uint256"
        },
        {
          "internalType": "string",
          "name": "",
          "type": "string"
        }
      ],
      "stateMutability": "view",
      "type": "function"
    },
    {
      "inputs": [
        {
          "internalType": "address",
          "name": "",
          "type": "address"
        }
      ],
      "name": "scores",
      "outputs": [
        {
          "internalType": "uint256",
          "name": "count",
          "type": "uint256"
        },
        {
          "internalType": "string",
          "name": "encryptedData",
          "type": "string"
        }
      ],
      "stateMutability": "view",
      "type": "function"
    },
    {
      "inputs": [
        {
          "internalType": "uint256",
          "name": "_count",
          "type": "uint256"
        },
        {
          "internalType": "string",
          "name": "_encryptedData",
          "type": "string"
        }
      ],
      "name": "setScore",
      "outputs": [],
      "stateMutability": "nonpayable",
      "type": "function"
    },
    {
      "inputs": [],
      "name": "verifierContract",
      "outputs": [
        {
          "internalType": "contract IVerifier",
          "name": "",
          "type": "address"
        }
      ],
      "stateMutability": "view",
      "type": "function"
    },
    {
      "inputs": [
        {
          "internalType": "uint256[2]",
          "name": "a",
          "type": "uint256[2]"
        },
        {
          "internalType": "uint256[2][2]",
          "name": "b",
          "type": "uint256[2][2]"
        },
        {
          "internalType": "uint256[2]",
          "name": "c",
          "type": "uint256[2]"
        },
        {
          "internalType": "uint256[2]",
          "name": "input",
          "type": "uint256[2]"
        }
      ],
      "name": "verifyProof",
      "outputs": [
        {
          "internalType": "bool",
          "name": "r",
          "type": "bool"
        }
      ],
      "stateMutability": "nonpayable",
      "type": "function"
    }
  ],
  "bytecode": "0x60a06040523480156200001157600080fd5b50604051620011ab380380620011ab8339818101604052810190620000379190620000dc565b8073ffffffffffffffffffffffffffffffffffffffff1660808173ffffffffffffffffffffffffffffffffffffffff1681525050506200010e565b600080fd5b600073ffffffffffffffffffffffffffffffffffffffff82169050919050565b6000620000a48262000077565b9050919050565b620000b68162000097565b8114620000c257600080fd5b50565b600081519050620000d681620000ab565b92915050565b600060208284031215620000f557620000f462000072565b5b60006200010584828501620000c5565b91505092915050565b60805161107a620001316000396000818161028b01526103cd015261107a6000f3fe608060405234801561001057600080fd5b50600436106100575760003560e01c806342c54c361461005c57806376dd110f14610078578063cf695688146100a9578063d47875d0146100c7578063f5c9d69e146100f8575b600080fd5b6100766004803603810190610071919061068c565b610128565b005b610092600480360381019061008d9190610746565b6101dd565b6040516100a0929190610801565b60405180910390f35b6100b1610289565b6040516100be9190610890565b60405180910390f35b6100e160048036038101906100dc9190610746565b6102ad565b6040516100ef929190610801565b60405180910390f35b610112600480360381019061010d9190610a12565b6103c9565b60405161011f9190610a96565b60405180910390f35b6040518060400160405280838152602001828152506000803373ffffffffffffffffffffffffffffffffffffffff1673ffffffffffffffffffffffffffffffffffffffff16815260200190815260200160002060008201518160000155602082015181600101908161019a9190610cb3565b509050507ff0a87bc74c0454aea67e54f1538ce1bc17bb8d63f2b6c891e933e1badf934adb3383836040516101d193929190610d94565b60405180910390a15050565b600060205280600052604060002060009150905080600001549080600101805461020690610ae0565b80601f016020809104026020016040519081016040528092919081815260200182805461023290610ae0565b801561027f5780601f106102545761010080835404028352916020019161027f565b820191906000526020600020905b81548152906001019060200180831161026257829003601f168201915b5050505050905082565b7f000000000000000000000000000000000000000000000000000000000000000081565b600060606000808473ffffffffffffffffffffffffffffffffffffffff1673ffffffffffffffffffffffffffffffffffffffff168152602001908152602001600020600001546000808573ffffffffffffffffffffffffffffffffffffffff1673ffffffffffffffffffffffffffffffffffffffff16815260200190815260200160002060010180805461034090610ae0565b80601f016020809104026020016040519081016040528092919081815260200182805461036c90610ae0565b80156103b95780601f1061038e576101008083540402835291602001916103b9565b820191906000526020600020905b81548152906001019060200180831161039c57829003601f168201915b5050505050905091509150915091565b60007f000000000000000000000000000000000000000000000000000000000000000073ffffffffffffffffffffffffffffffffffffffff1663f5c9d69e868686866040518563ffffffff1660e01b815260040161042a9493929190610f7b565b6020604051808303816000875af1158015610449573d6000803e3d6000fd5b505050506040513d601f19601f8201168201806040525081019061046d9190610fee565b156104b5577fc39f49fc22f7d1922b75a440342391c3ce5200f33659fb84711c2b8addefd6bf3360016040516104a492919061101b565b60405180910390a1600190506104f4565b7fc39f49fc22f7d1922b75a440342391c3ce5200f33659fb84711c2b8addefd6bf3360006040516104e792919061101b565b60405180910390a1600090505b949350505050565b6000604051905090565b600080fd5b600080fd5b6000819050919050565b61052381610510565b811461052e57600080fd5b50565b6000813590506105408161051a565b92915050565b600080fd5b600080fd5b6000601f19601f8301169050919050565b7f4e487b7100000000000000000000000000000000000000000000000000000000600052604160045260246000fd5b61059982610550565b810181811067ffffffffffffffff821117156105b8576105b7610561565b5b80604052505050565b60006105cb6104fc565b90506105d78282610590565b919050565b600067ffffffffffffffff8211156105f7576105f6610561565b5b61060082610550565b9050602081019050919050565b82818337600083830152505050565b600061062f61062a846105dc565b6105c1565b90508281526020810184848401111561064b5761064a61054b565b5b61065684828561060d565b509392505050565b600082601f83011261067357610672610546565b5b813561068384826020860161061c565b91505092915050565b600080604083850312156106a3576106a2610506565b5b60006106b185828601610531565b925050602083013567ffffffffffffffff8111156106d2576106d161050b565b5b6106de8582860161065e565b9150509250929050565b600073ffffffffffffffffffffffffffffffffffffffff82169050919050565b6000610713826106e8565b9050919050565b61072381610708565b811461072e57600080fd5b50565b6000813590506107408161071a565b92915050565b60006020828403121561075c5761075b610506565b5b600061076a84828501610731565b91505092915050565b61077c81610510565b82525050565b600081519050919050565b600082825260208201905092915050565b60005b838110156107bc5780820151818401526020810190506107a1565b60008484015250505050565b60006107d382610782565b6107dd818561078d565b93506107ed81856020860161079e565b6107f681610550565b840191505092915050565b60006040820190506108166000830185610773565b818103602083015261082881846107c8565b90509392505050565b6000819050919050565b600061085661085161084c846106e8565b610831565b6106e8565b9050919050565b60006108688261083b565b9050919050565b600061087a8261085d565b9050919050565b61088a8161086f565b82525050565b60006020820190506108a56000830184610881565b92915050565b600067ffffffffffffffff8211156108c6576108c5610561565b5b602082029050919050565b600080fd5b60006108e96108e4846108ab565b6105c1565b90508060208402830185811115610903576109026108d1565b5b835b8181101561092c57806109188882610531565b845260208401935050602081019050610905565b5050509392505050565b600082601f83011261094b5761094a610546565b5b60026109588482856108d6565b91505092915050565b600067ffffffffffffffff82111561097c5761097b610561565b5b602082029050919050565b600061099a61099584610961565b6105c1565b905080604084028301858111156109b4576109b36108d1565b5b835b818110156109dd57806109c98882610936565b8452602084019350506040810190506109b6565b5050509392505050565b600082601f8301126109fc576109fb610546565b5b6002610a09848285610987565b91505092915050565b6000806000806101408587031215610a2d57610a2c610506565b5b6000610a3b87828801610936565b9450506040610a4c878288016109e7565b93505060c0610a5d87828801610936565b925050610100610a6f87828801610936565b91505092959194509250565b60008115159050919050565b610a9081610a7b565b82525050565b6000602082019050610aab6000830184610a87565b92915050565b7f4e487b7100000000000000000000000000000000000000000000000000000000600052602260045260246000fd5b60006002820490506001821680610af857607f821691505b602082108103610b0b57610b0a610ab1565b5b50919050565b60008190508160005260206000209050919050565b60006020601f8301049050919050565b600082821b905092915050565b600060088302610b737fffffffffffffffffffffffffffffffffffffffffffffffffffffffffffffffff82610b36565b610b7d8683610b36565b95508019841693508086168417925050509392505050565b6000610bb0610bab610ba684610510565b610831565b610510565b9050919050565b6000819050919050565b610bca83610b95565b610bde610bd682610bb7565b848454610b43565b825550505050565b600090565b610bf3610be6565b610bfe818484610bc1565b505050565b5b81811015610c2257610c17600082610beb565b600181019050610c04565b5050565b601f821115610c6757610c3881610b11565b610c4184610b26565b81016020851015610c50578190505b610c64610c5c85610b26565b830182610c03565b50505b505050565b600082821c905092915050565b6000610c8a60001984600802610c6c565b1980831691505092915050565b6000610ca38383610c79565b9150826002028217905092915050565b610cbc82610782565b67ffffffffffffffff811115610cd557610cd4610561565b5b610cdf8254610ae0565b610cea828285610c26565b600060209050601f831160018114610d1d5760008415610d0b578287015190505b610d158582610c97565b865550610d7d565b601f198416610d2b86610b11565b60005b82811015610d5357848901518255600182019150602085019450602081019050610d2e565b86831015610d705784890151610d6c601f891682610c79565b8355505b6001600288020188555050505b505050505050565b610d8e81610708565b82525050565b6000606082019050610da96000830186610d85565b610db66020830185610773565b8181036040830152610dc881846107c8565b9050949350505050565b600060029050919050565b600081905092915050565b6000819050919050565b610dfb81610510565b82525050565b6000610e0d8383610df2565b60208301905092915050565b6000602082019050919050565b610e2f81610dd2565b610e398184610ddd565b9250610e4482610de8565b8060005b83811015610e75578151610e5c8782610e01565b9650610e6783610e19565b925050600181019050610e48565b505050505050565b600060029050919050565b600081905092915050565b6000819050919050565b600081905092915050565b610eb181610dd2565b610ebb8184610e9d565b9250610ec682610de8565b8060005b83811015610ef7578151610ede8782610e01565b9650610ee983610e19565b925050600181019050610eca565b505050505050565b6000610f0b8383610ea8565b60408301905092915050565b6000602082019050919050565b610f2d81610e7d565b610f378184610e88565b9250610f4282610e93565b8060005b83811015610f73578151610f5a8782610eff565b9650610f6583610f17565b925050600181019050610f46565b505050505050565b600061014082019050610f916000830187610e26565b610f9e6040830186610f24565b610fab60c0830185610e26565b610fb9610100830184610e26565b95945050505050565b610fcb81610a7b565b8114610fd657600080fd5b50565b600081519050610fe881610fc2565b92915050565b60006020828403121561100457611003610506565b5b600061101284828501610fd9565b91505092915050565b60006040820190506110306000830185610d85565b61103d6020830184610a87565b939250505056fea2646970667358221220de7e044578afa0c5a696969877b24aa8171ce796c7016b0348af244d0c070afe64736f6c63430008130033",
  "linkReferences": {},
  "deployedLinkReferences": {}
}