{
  "_format": "hh-sol-artifact-1",
  "contractName": "ScoreVault",
  "sourceName": "contracts/mock/ScoreVault.sol",
  "abi": [
    {
      "inputs": [
        {
          "internalType": "address",
          "name": "_verifierContract",
          "type": "address"
        },
        {
          "internalType": "address",
          "name": "_trustedForwarder",
          "type": "address"
        }
      ],
      "stateMutability": "nonpayable",
      "type": "constructor"
    },
    {
      "anonymous": false,
      "inputs": [
        {
          "indexed": false,
          "internalType": "address",
          "name": "msgSender",
          "type": "address"
        },
        {
          "indexed": false,
          "internalType": "string",
          "name": "encryptedCount",
          "type": "string"
        },
        {
          "indexed": false,
          "internalType": "string",
          "name": "encryptedData",
          "type": "string"
        }
      ],
      "name": "UpdateScore",
      "type": "event"
    },
    {
      "anonymous": false,
      "inputs": [
        {
          "indexed": false,
          "internalType": "address",
          "name": "msgSender",
          "type": "address"
        },
        {
          "indexed": false,
          "internalType": "bool",
          "name": "result",
          "type": "bool"
        }
      ],
      "name": "Verify",
      "type": "event"
    },
    {
      "inputs": [
        {
          "internalType": "address",
          "name": "_address",
          "type": "address"
        }
      ],
      "name": "getScore",
      "outputs": [
        {
          "internalType": "string",
          "name": "",
          "type": "string"
        },
        {
          "internalType": "string",
          "name": "",
          "type": "string"
        }
      ],
      "stateMutability": "view",
      "type": "function"
    },
    {
      "inputs": [
        {
          "internalType": "address",
          "name": "forwarder",
          "type": "address"
        }
      ],
      "name": "isTrustedForwarder",
      "outputs": [
        {
          "internalType": "bool",
          "name": "",
          "type": "bool"
        }
      ],
      "stateMutability": "view",
      "type": "function"
    },
    {
      "inputs": [
        {
          "internalType": "address",
          "name": "",
          "type": "address"
        }
      ],
      "name": "scores",
      "outputs": [
        {
          "internalType": "string",
          "name": "encryptedCount",
          "type": "string"
        },
        {
          "internalType": "string",
          "name": "encryptedData",
          "type": "string"
        }
      ],
      "stateMutability": "view",
      "type": "function"
    },
    {
      "inputs": [
        {
          "internalType": "address",
          "name": "_to",
          "type": "address"
        },
        {
          "internalType": "string",
          "name": "_encryptedCount",
          "type": "string"
        },
        {
          "internalType": "string",
          "name": "_encryptedData",
          "type": "string"
        }
      ],
      "name": "setScore",
      "outputs": [],
      "stateMutability": "nonpayable",
      "type": "function"
    },
    {
      "inputs": [],
      "name": "trustedForwarder",
      "outputs": [
        {
          "internalType": "address",
          "name": "",
          "type": "address"
        }
      ],
      "stateMutability": "view",
      "type": "function"
    },
    {
      "inputs": [],
      "name": "verifierContract",
      "outputs": [
        {
          "internalType": "contract IVerifier",
          "name": "",
          "type": "address"
        }
      ],
      "stateMutability": "view",
      "type": "function"
    },
    {
      "inputs": [
        {
          "internalType": "uint256[2]",
          "name": "a",
          "type": "uint256[2]"
        },
        {
          "internalType": "uint256[2][2]",
          "name": "b",
          "type": "uint256[2][2]"
        },
        {
          "internalType": "uint256[2]",
          "name": "c",
          "type": "uint256[2]"
        },
        {
          "internalType": "uint256[2]",
          "name": "input",
          "type": "uint256[2]"
        }
      ],
      "name": "verifyProof",
      "outputs": [
        {
          "internalType": "bool",
          "name": "r",
          "type": "bool"
        }
      ],
      "stateMutability": "nonpayable",
      "type": "function"
    }
  ],
  "bytecode": "0x60c06040523480156200001157600080fd5b506040516200144438038062001444833981810160405281019062000037919062000113565b808073ffffffffffffffffffffffffffffffffffffffff1660808173ffffffffffffffffffffffffffffffffffffffff1681525050508173ffffffffffffffffffffffffffffffffffffffff1660a08173ffffffffffffffffffffffffffffffffffffffff168152505050506200015a565b600080fd5b600073ffffffffffffffffffffffffffffffffffffffff82169050919050565b6000620000db82620000ae565b9050919050565b620000ed81620000ce565b8114620000f957600080fd5b50565b6000815190506200010d81620000e2565b92915050565b600080604083850312156200012d576200012c620000a9565b5b60006200013d85828601620000fc565b92505060206200015085828601620000fc565b9150509250929050565b60805160a0516112bd62000187600039600081816103fb01526105c7015260006103d501526112bd6000f3fe608060405234801561001057600080fd5b506004361061007d5760003560e01c80637da0a8771161005b5780637da0a877146100ff578063cf6956881461011d578063d47875d01461013b578063f5c9d69e1461016c5761007d565b80631e5255cf14610082578063572b6c051461009e57806376dd110f146100ce575b600080fd5b61009c600480360381019061009791906108ae565b61019c565b005b6100b860048036038101906100b39190610939565b61025e565b6040516100c59190610981565b60405180910390f35b6100e860048036038101906100e39190610939565b61029d565b6040516100f6929190610a1b565b60405180910390f35b6101076103d1565b6040516101149190610a61565b60405180910390f35b6101256103f9565b6040516101329190610adb565b60405180910390f35b61015560048036038101906101509190610939565b61041d565b604051610163929190610a1b565b60405180910390f35b61018660048036038101906101819190610c93565b6105c3565b6040516101939190610981565b60405180910390f35b6040518060400160405280838152602001828152506000808573ffffffffffffffffffffffffffffffffffffffff1673ffffffffffffffffffffffffffffffffffffffff16815260200190815260200160002060008201518160000190816102049190610efe565b50602082015181600101908161021a9190610efe565b509050507f9aa91a018ad0d96801e077e2d09f49c5824b5c963af107eb091c37e6b21b2e4583838360405161025193929190610fd0565b60405180910390a1505050565b60006102686103d1565b73ffffffffffffffffffffffffffffffffffffffff168273ffffffffffffffffffffffffffffffffffffffff16149050919050565b60006020528060005260406000206000915090508060000180546102c090610d2b565b80601f01602080910402602001604051908101604052809291908181526020018280546102ec90610d2b565b80156103395780601f1061030e57610100808354040283529160200191610339565b820191906000526020600020905b81548152906001019060200180831161031c57829003601f168201915b50505050509080600101805461034e90610d2b565b80601f016020809104026020016040519081016040528092919081815260200182805461037a90610d2b565b80156103c75780601f1061039c576101008083540402835291602001916103c7565b820191906000526020600020905b8154815290600101906020018083116103aa57829003601f168201915b5050505050905082565b60007f0000000000000000000000000000000000000000000000000000000000000000905090565b7f000000000000000000000000000000000000000000000000000000000000000081565b6060806000808473ffffffffffffffffffffffffffffffffffffffff1673ffffffffffffffffffffffffffffffffffffffff1681526020019081526020016000206000016000808573ffffffffffffffffffffffffffffffffffffffff1673ffffffffffffffffffffffffffffffffffffffff1681526020019081526020016000206001018180546104ae90610d2b565b80601f01602080910402602001604051908101604052809291908181526020018280546104da90610d2b565b80156105275780601f106104fc57610100808354040283529160200191610527565b820191906000526020600020905b81548152906001019060200180831161050a57829003601f168201915b5050505050915080805461053a90610d2b565b80601f016020809104026020016040519081016040528092919081815260200182805461056690610d2b565b80156105b35780601f10610588576101008083540402835291602001916105b3565b820191906000526020600020905b81548152906001019060200180831161059657829003601f168201915b5050505050905091509150915091565b60007f000000000000000000000000000000000000000000000000000000000000000073ffffffffffffffffffffffffffffffffffffffff1663f5c9d69e868686866040518563ffffffff1660e01b815260040161062494939291906111be565b6020604051808303816000875af1158015610643573d6000803e3d6000fd5b505050506040513d601f19601f820116820180604052508101906106679190611231565b156106af577fc39f49fc22f7d1922b75a440342391c3ce5200f33659fb84711c2b8addefd6bf33600160405161069e92919061125e565b60405180910390a1600190506106ee565b7fc39f49fc22f7d1922b75a440342391c3ce5200f33659fb84711c2b8addefd6bf3360006040516106e192919061125e565b60405180910390a1600090505b949350505050565b6000604051905090565b600080fd5b600080fd5b600073ffffffffffffffffffffffffffffffffffffffff82169050919050565b60006107358261070a565b9050919050565b6107458161072a565b811461075057600080fd5b50565b6000813590506107628161073c565b92915050565b600080fd5b600080fd5b6000601f19601f8301169050919050565b7f4e487b7100000000000000000000000000000000000000000000000000000000600052604160045260246000fd5b6107bb82610772565b810181811067ffffffffffffffff821117156107da576107d9610783565b5b80604052505050565b60006107ed6106f6565b90506107f982826107b2565b919050565b600067ffffffffffffffff82111561081957610818610783565b5b61082282610772565b9050602081019050919050565b82818337600083830152505050565b600061085161084c846107fe565b6107e3565b90508281526020810184848401111561086d5761086c61076d565b5b61087884828561082f565b509392505050565b600082601f83011261089557610894610768565b5b81356108a584826020860161083e565b91505092915050565b6000806000606084860312156108c7576108c6610700565b5b60006108d586828701610753565b935050602084013567ffffffffffffffff8111156108f6576108f5610705565b5b61090286828701610880565b925050604084013567ffffffffffffffff81111561092357610922610705565b5b61092f86828701610880565b9150509250925092565b60006020828403121561094f5761094e610700565b5b600061095d84828501610753565b91505092915050565b60008115159050919050565b61097b81610966565b82525050565b60006020820190506109966000830184610972565b92915050565b600081519050919050565b600082825260208201905092915050565b60005b838110156109d65780820151818401526020810190506109bb565b60008484015250505050565b60006109ed8261099c565b6109f781856109a7565b9350610a078185602086016109b8565b610a1081610772565b840191505092915050565b60006040820190508181036000830152610a3581856109e2565b90508181036020830152610a4981846109e2565b90509392505050565b610a5b8161072a565b82525050565b6000602082019050610a766000830184610a52565b92915050565b6000819050919050565b6000610aa1610a9c610a978461070a565b610a7c565b61070a565b9050919050565b6000610ab382610a86565b9050919050565b6000610ac582610aa8565b9050919050565b610ad581610aba565b82525050565b6000602082019050610af06000830184610acc565b92915050565b600067ffffffffffffffff821115610b1157610b10610783565b5b602082029050919050565b600080fd5b6000819050919050565b610b3481610b21565b8114610b3f57600080fd5b50565b600081359050610b5181610b2b565b92915050565b6000610b6a610b6584610af6565b6107e3565b90508060208402830185811115610b8457610b83610b1c565b5b835b81811015610bad5780610b998882610b42565b845260208401935050602081019050610b86565b5050509392505050565b600082601f830112610bcc57610bcb610768565b5b6002610bd9848285610b57565b91505092915050565b600067ffffffffffffffff821115610bfd57610bfc610783565b5b602082029050919050565b6000610c1b610c1684610be2565b6107e3565b90508060408402830185811115610c3557610c34610b1c565b5b835b81811015610c5e5780610c4a8882610bb7565b845260208401935050604081019050610c37565b5050509392505050565b600082601f830112610c7d57610c7c610768565b5b6002610c8a848285610c08565b91505092915050565b6000806000806101408587031215610cae57610cad610700565b5b6000610cbc87828801610bb7565b9450506040610ccd87828801610c68565b93505060c0610cde87828801610bb7565b925050610100610cf087828801610bb7565b91505092959194509250565b7f4e487b7100000000000000000000000000000000000000000000000000000000600052602260045260246000fd5b60006002820490506001821680610d4357607f821691505b602082108103610d5657610d55610cfc565b5b50919050565b60008190508160005260206000209050919050565b60006020601f8301049050919050565b600082821b905092915050565b600060088302610dbe7fffffffffffffffffffffffffffffffffffffffffffffffffffffffffffffffff82610d81565b610dc88683610d81565b95508019841693508086168417925050509392505050565b6000610dfb610df6610df184610b21565b610a7c565b610b21565b9050919050565b6000819050919050565b610e1583610de0565b610e29610e2182610e02565b848454610d8e565b825550505050565b600090565b610e3e610e31565b610e49818484610e0c565b505050565b5b81811015610e6d57610e62600082610e36565b600181019050610e4f565b5050565b601f821115610eb257610e8381610d5c565b610e8c84610d71565b81016020851015610e9b578190505b610eaf610ea785610d71565b830182610e4e565b50505b505050565b600082821c905092915050565b6000610ed560001984600802610eb7565b1980831691505092915050565b6000610eee8383610ec4565b9150826002028217905092915050565b610f078261099c565b67ffffffffffffffff811115610f2057610f1f610783565b5b610f2a8254610d2b565b610f35828285610e71565b600060209050601f831160018114610f685760008415610f56578287015190505b610f608582610ee2565b865550610fc8565b601f198416610f7686610d5c565b60005b82811015610f9e57848901518255600182019150602085019450602081019050610f79565b86831015610fbb5784890151610fb7601f891682610ec4565b8355505b6001600288020188555050505b505050505050565b6000606082019050610fe56000830186610a52565b8181036020830152610ff781856109e2565b9050818103604083015261100b81846109e2565b9050949350505050565b600060029050919050565b600081905092915050565b6000819050919050565b61103e81610b21565b82525050565b60006110508383611035565b60208301905092915050565b6000602082019050919050565b61107281611015565b61107c8184611020565b92506110878261102b565b8060005b838110156110b857815161109f8782611044565b96506110aa8361105c565b92505060018101905061108b565b505050505050565b600060029050919050565b600081905092915050565b6000819050919050565b600081905092915050565b6110f481611015565b6110fe81846110e0565b92506111098261102b565b8060005b8381101561113a5781516111218782611044565b965061112c8361105c565b92505060018101905061110d565b505050505050565b600061114e83836110eb565b60408301905092915050565b6000602082019050919050565b611170816110c0565b61117a81846110cb565b9250611185826110d6565b8060005b838110156111b657815161119d8782611142565b96506111a88361115a565b925050600181019050611189565b505050505050565b6000610140820190506111d46000830187611069565b6111e16040830186611167565b6111ee60c0830185611069565b6111fc610100830184611069565b95945050505050565b61120e81610966565b811461121957600080fd5b50565b60008151905061122b81611205565b92915050565b60006020828403121561124757611246610700565b5b60006112558482850161121c565b91505092915050565b60006040820190506112736000830185610a52565b6112806020830184610972565b939250505056fea26469706673582212204ffeac1bdfd728e365cba05986475e5a10147efcf3b43e7e334a9c5b9b88918264736f6c63430008140033",
  "linkReferences": {},
  "deployedLinkReferences": {}
}