{
  "_format": "hh-sol-artifact-1",
  "contractName": "ScoreVault",
  "sourceName": "contracts/mock/ScoreVault.sol",
  "abi": [
    {
      "inputs": [
        {
          "internalType": "address",
          "name": "_verifierContract",
          "type": "address"
        },
        {
          "internalType": "address",
          "name": "_trustedForwarder",
          "type": "address"
        }
      ],
      "stateMutability": "nonpayable",
      "type": "constructor"
    },
    {
      "anonymous": false,
      "inputs": [
        {
          "indexed": false,
          "internalType": "address",
          "name": "msgSender",
          "type": "address"
        },
        {
          "indexed": false,
          "internalType": "string",
          "name": "encryptedCount",
          "type": "string"
        },
        {
          "indexed": false,
          "internalType": "string",
          "name": "encryptedData",
          "type": "string"
        },
        {
          "indexed": false,
          "internalType": "uint256",
          "name": "newCount",
          "type": "uint256"
        }
      ],
      "name": "UpdateScore",
      "type": "event"
    },
    {
      "anonymous": false,
      "inputs": [
        {
          "indexed": false,
          "internalType": "address",
          "name": "msgSender",
          "type": "address"
        },
        {
          "indexed": false,
          "internalType": "bool",
          "name": "result",
          "type": "bool"
        }
      ],
      "name": "Verify",
      "type": "event"
    },
    {
      "inputs": [
        {
          "internalType": "address",
          "name": "_address",
          "type": "address"
        }
      ],
      "name": "getScore",
      "outputs": [
        {
          "internalType": "string",
          "name": "",
          "type": "string"
        },
        {
          "internalType": "string",
          "name": "",
          "type": "string"
        },
        {
          "internalType": "uint256",
          "name": "",
          "type": "uint256"
        }
      ],
      "stateMutability": "view",
      "type": "function"
    },
    {
      "inputs": [
        {
          "internalType": "address",
          "name": "forwarder",
          "type": "address"
        }
      ],
      "name": "isTrustedForwarder",
      "outputs": [
        {
          "internalType": "bool",
          "name": "",
          "type": "bool"
        }
      ],
      "stateMutability": "view",
      "type": "function"
    },
    {
      "inputs": [
        {
          "internalType": "address",
          "name": "",
          "type": "address"
        }
      ],
      "name": "scores",
      "outputs": [
        {
          "internalType": "string",
          "name": "encryptedCount",
          "type": "string"
        },
        {
          "internalType": "string",
          "name": "encryptedData",
          "type": "string"
        }
      ],
      "stateMutability": "view",
      "type": "function"
    },
    {
      "inputs": [
        {
          "internalType": "address",
          "name": "",
          "type": "address"
        }
      ],
      "name": "setCount",
      "outputs": [
        {
          "internalType": "uint256",
          "name": "",
          "type": "uint256"
        }
      ],
      "stateMutability": "view",
      "type": "function"
    },
    {
      "inputs": [
        {
          "internalType": "address",
          "name": "_to",
          "type": "address"
        },
        {
          "internalType": "string",
          "name": "_encryptedCount",
          "type": "string"
        },
        {
          "internalType": "string",
          "name": "_encryptedData",
          "type": "string"
        }
      ],
      "name": "setScore",
      "outputs": [],
      "stateMutability": "nonpayable",
      "type": "function"
    },
    {
      "inputs": [],
      "name": "trustedForwarder",
      "outputs": [
        {
          "internalType": "address",
          "name": "",
          "type": "address"
        }
      ],
      "stateMutability": "view",
      "type": "function"
    },
    {
      "inputs": [],
      "name": "verifierContract",
      "outputs": [
        {
          "internalType": "contract IVerifier",
          "name": "",
          "type": "address"
        }
      ],
      "stateMutability": "view",
      "type": "function"
    },
    {
      "inputs": [
        {
          "internalType": "uint256[2]",
          "name": "a",
          "type": "uint256[2]"
        },
        {
          "internalType": "uint256[2][2]",
          "name": "b",
          "type": "uint256[2][2]"
        },
        {
          "internalType": "uint256[2]",
          "name": "c",
          "type": "uint256[2]"
        },
        {
          "internalType": "uint256[2]",
          "name": "input",
          "type": "uint256[2]"
        }
      ],
      "name": "verifyProof",
      "outputs": [
        {
          "internalType": "bool",
          "name": "r",
          "type": "bool"
        }
      ],
      "stateMutability": "nonpayable",
      "type": "function"
    }
  ],
  "bytecode": "0x60c06040523480156200001157600080fd5b506040516200165b3803806200165b833981810160405281019062000037919062000113565b808073ffffffffffffffffffffffffffffffffffffffff1660808173ffffffffffffffffffffffffffffffffffffffff1681525050508173ffffffffffffffffffffffffffffffffffffffff1660a08173ffffffffffffffffffffffffffffffffffffffff168152505050506200015a565b600080fd5b600073ffffffffffffffffffffffffffffffffffffffff82169050919050565b6000620000db82620000ae565b9050919050565b620000ed81620000ce565b8114620000f957600080fd5b50565b6000815190506200010d81620000e2565b92915050565b600080604083850312156200012d576200012c620000a9565b5b60006200013d85828601620000fc565b92505060206200015085828601620000fc565b9150509250929050565b60805160a0516114d462000187600039600081816104ec01526106fe015260006104c601526114d46000f3fe608060405234801561001057600080fd5b50600436106100885760003560e01c80637da0a8771161005b5780637da0a8771461013a578063cf69568814610158578063d47875d014610176578063f5c9d69e146101a857610088565b80630d2549d11461008d5780631e5255cf146100bd578063572b6c05146100d957806376dd110f14610109575b600080fd5b6100a760048036038101906100a2919061089f565b6101d8565b6040516100b491906108e5565b60405180910390f35b6100d760048036038101906100d29190610a46565b6101f0565b005b6100f360048036038101906100ee919061089f565b61034f565b6040516101009190610aec565b60405180910390f35b610123600480360381019061011e919061089f565b61038e565b604051610131929190610b86565b60405180910390f35b6101426104c2565b60405161014f9190610bcc565b60405180910390f35b6101606104ea565b60405161016d9190610c46565b60405180910390f35b610190600480360381019061018b919061089f565b61050e565b60405161019f93929190610c61565b60405180910390f35b6101c260048036038101906101bd9190610e39565b6106fa565b6040516101cf9190610aec565b60405180910390f35b60016020528060005260406000206000915090505481565b6040518060400160405280838152602001828152506000808573ffffffffffffffffffffffffffffffffffffffff1673ffffffffffffffffffffffffffffffffffffffff168152602001908152602001600020600082015181600001908161025891906110a4565b50602082015181600101908161026e91906110a4565b509050506000600160008573ffffffffffffffffffffffffffffffffffffffff1673ffffffffffffffffffffffffffffffffffffffff16815260200190815260200160002054905060006001826102c591906111a5565b905080600160008773ffffffffffffffffffffffffffffffffffffffff1673ffffffffffffffffffffffffffffffffffffffff168152602001908152602001600020819055507f2756cee1d32ee569ddfbcd3092c2564a1a930b4759164b17f444f7751a2b73218585858460405161034094939291906111d9565b60405180910390a15050505050565b60006103596104c2565b73ffffffffffffffffffffffffffffffffffffffff168273ffffffffffffffffffffffffffffffffffffffff16149050919050565b60006020528060005260406000206000915090508060000180546103b190610ed1565b80601f01602080910402602001604051908101604052809291908181526020018280546103dd90610ed1565b801561042a5780601f106103ff5761010080835404028352916020019161042a565b820191906000526020600020905b81548152906001019060200180831161040d57829003601f168201915b50505050509080600101805461043f90610ed1565b80601f016020809104026020016040519081016040528092919081815260200182805461046b90610ed1565b80156104b85780601f1061048d576101008083540402835291602001916104b8565b820191906000526020600020905b81548152906001019060200180831161049b57829003601f168201915b5050505050905082565b60007f0000000000000000000000000000000000000000000000000000000000000000905090565b7f000000000000000000000000000000000000000000000000000000000000000081565b60608060008060008573ffffffffffffffffffffffffffffffffffffffff1673ffffffffffffffffffffffffffffffffffffffff1681526020019081526020016000206000016000808673ffffffffffffffffffffffffffffffffffffffff1673ffffffffffffffffffffffffffffffffffffffff168152602001908152602001600020600101600160008773ffffffffffffffffffffffffffffffffffffffff1673ffffffffffffffffffffffffffffffffffffffff168152602001908152602001600020548280546105e190610ed1565b80601f016020809104026020016040519081016040528092919081815260200182805461060d90610ed1565b801561065a5780601f1061062f5761010080835404028352916020019161065a565b820191906000526020600020905b81548152906001019060200180831161063d57829003601f168201915b5050505050925081805461066d90610ed1565b80601f016020809104026020016040519081016040528092919081815260200182805461069990610ed1565b80156106e65780601f106106bb576101008083540402835291602001916106e6565b820191906000526020600020905b8154815290600101906020018083116106c957829003601f168201915b505050505091509250925092509193909250565b60007f000000000000000000000000000000000000000000000000000000000000000073ffffffffffffffffffffffffffffffffffffffff1663f5c9d69e868686866040518563ffffffff1660e01b815260040161075b94939291906113d5565b6020604051808303816000875af115801561077a573d6000803e3d6000fd5b505050506040513d601f19601f8201168201806040525081019061079e9190611448565b156107e6577fc39f49fc22f7d1922b75a440342391c3ce5200f33659fb84711c2b8addefd6bf3360016040516107d5929190611475565b60405180910390a160019050610825565b7fc39f49fc22f7d1922b75a440342391c3ce5200f33659fb84711c2b8addefd6bf336000604051610818929190611475565b60405180910390a1600090505b949350505050565b6000604051905090565b600080fd5b600080fd5b600073ffffffffffffffffffffffffffffffffffffffff82169050919050565b600061086c82610841565b9050919050565b61087c81610861565b811461088757600080fd5b50565b60008135905061089981610873565b92915050565b6000602082840312156108b5576108b4610837565b5b60006108c38482850161088a565b91505092915050565b6000819050919050565b6108df816108cc565b82525050565b60006020820190506108fa60008301846108d6565b92915050565b600080fd5b600080fd5b6000601f19601f8301169050919050565b7f4e487b7100000000000000000000000000000000000000000000000000000000600052604160045260246000fd5b6109538261090a565b810181811067ffffffffffffffff821117156109725761097161091b565b5b80604052505050565b600061098561082d565b9050610991828261094a565b919050565b600067ffffffffffffffff8211156109b1576109b061091b565b5b6109ba8261090a565b9050602081019050919050565b82818337600083830152505050565b60006109e96109e484610996565b61097b565b905082815260208101848484011115610a0557610a04610905565b5b610a108482856109c7565b509392505050565b600082601f830112610a2d57610a2c610900565b5b8135610a3d8482602086016109d6565b91505092915050565b600080600060608486031215610a5f57610a5e610837565b5b6000610a6d8682870161088a565b935050602084013567ffffffffffffffff811115610a8e57610a8d61083c565b5b610a9a86828701610a18565b925050604084013567ffffffffffffffff811115610abb57610aba61083c565b5b610ac786828701610a18565b9150509250925092565b60008115159050919050565b610ae681610ad1565b82525050565b6000602082019050610b016000830184610add565b92915050565b600081519050919050565b600082825260208201905092915050565b60005b83811015610b41578082015181840152602081019050610b26565b60008484015250505050565b6000610b5882610b07565b610b628185610b12565b9350610b72818560208601610b23565b610b7b8161090a565b840191505092915050565b60006040820190508181036000830152610ba08185610b4d565b90508181036020830152610bb48184610b4d565b90509392505050565b610bc681610861565b82525050565b6000602082019050610be16000830184610bbd565b92915050565b6000819050919050565b6000610c0c610c07610c0284610841565b610be7565b610841565b9050919050565b6000610c1e82610bf1565b9050919050565b6000610c3082610c13565b9050919050565b610c4081610c25565b82525050565b6000602082019050610c5b6000830184610c37565b92915050565b60006060820190508181036000830152610c7b8186610b4d565b90508181036020830152610c8f8185610b4d565b9050610c9e60408301846108d6565b949350505050565b600067ffffffffffffffff821115610cc157610cc061091b565b5b602082029050919050565b600080fd5b610cda816108cc565b8114610ce557600080fd5b50565b600081359050610cf781610cd1565b92915050565b6000610d10610d0b84610ca6565b61097b565b90508060208402830185811115610d2a57610d29610ccc565b5b835b81811015610d535780610d3f8882610ce8565b845260208401935050602081019050610d2c565b5050509392505050565b600082601f830112610d7257610d71610900565b5b6002610d7f848285610cfd565b91505092915050565b600067ffffffffffffffff821115610da357610da261091b565b5b602082029050919050565b6000610dc1610dbc84610d88565b61097b565b90508060408402830185811115610ddb57610dda610ccc565b5b835b81811015610e045780610df08882610d5d565b845260208401935050604081019050610ddd565b5050509392505050565b600082601f830112610e2357610e22610900565b5b6002610e30848285610dae565b91505092915050565b6000806000806101408587031215610e5457610e53610837565b5b6000610e6287828801610d5d565b9450506040610e7387828801610e0e565b93505060c0610e8487828801610d5d565b925050610100610e9687828801610d5d565b91505092959194509250565b7f4e487b7100000000000000000000000000000000000000000000000000000000600052602260045260246000fd5b60006002820490506001821680610ee957607f821691505b602082108103610efc57610efb610ea2565b5b50919050565b60008190508160005260206000209050919050565b60006020601f8301049050919050565b600082821b905092915050565b600060088302610f647fffffffffffffffffffffffffffffffffffffffffffffffffffffffffffffffff82610f27565b610f6e8683610f27565b95508019841693508086168417925050509392505050565b6000610fa1610f9c610f97846108cc565b610be7565b6108cc565b9050919050565b6000819050919050565b610fbb83610f86565b610fcf610fc782610fa8565b848454610f34565b825550505050565b600090565b610fe4610fd7565b610fef818484610fb2565b505050565b5b8181101561101357611008600082610fdc565b600181019050610ff5565b5050565b601f8211156110585761102981610f02565b61103284610f17565b81016020851015611041578190505b61105561104d85610f17565b830182610ff4565b50505b505050565b600082821c905092915050565b600061107b6000198460080261105d565b1980831691505092915050565b6000611094838361106a565b9150826002028217905092915050565b6110ad82610b07565b67ffffffffffffffff8111156110c6576110c561091b565b5b6110d08254610ed1565b6110db828285611017565b600060209050601f83116001811461110e57600084156110fc578287015190505b6111068582611088565b86555061116e565b601f19841661111c86610f02565b60005b828110156111445784890151825560018201915060208501945060208101905061111f565b86831015611161578489015161115d601f89168261106a565b8355505b6001600288020188555050505b505050505050565b7f4e487b7100000000000000000000000000000000000000000000000000000000600052601160045260246000fd5b60006111b0826108cc565b91506111bb836108cc565b92508282019050808211156111d3576111d2611176565b5b92915050565b60006080820190506111ee6000830187610bbd565b81810360208301526112008186610b4d565b905081810360408301526112148185610b4d565b905061122360608301846108d6565b95945050505050565b600060029050919050565b600081905092915050565b6000819050919050565b611255816108cc565b82525050565b6000611267838361124c565b60208301905092915050565b6000602082019050919050565b6112898161122c565b6112938184611237565b925061129e82611242565b8060005b838110156112cf5781516112b6878261125b565b96506112c183611273565b9250506001810190506112a2565b505050505050565b600060029050919050565b600081905092915050565b6000819050919050565b600081905092915050565b61130b8161122c565b61131581846112f7565b925061132082611242565b8060005b83811015611351578151611338878261125b565b965061134383611273565b925050600181019050611324565b505050505050565b60006113658383611302565b60408301905092915050565b6000602082019050919050565b611387816112d7565b61139181846112e2565b925061139c826112ed565b8060005b838110156113cd5781516113b48782611359565b96506113bf83611371565b9250506001810190506113a0565b505050505050565b6000610140820190506113eb6000830187611280565b6113f8604083018661137e565b61140560c0830185611280565b611413610100830184611280565b95945050505050565b61142581610ad1565b811461143057600080fd5b50565b6000815190506114428161141c565b92915050565b60006020828403121561145e5761145d610837565b5b600061146c84828501611433565b91505092915050565b600060408201905061148a6000830185610bbd565b6114976020830184610add565b939250505056fea264697066735822122039a20f08683ef2d380528ae224f9b877cf92d5555a58670071cc044566ffb65664736f6c63430008140033",
  "linkReferences": {},
  "deployedLinkReferences": {}
}