{
  "_format": "hh-sol-artifact-1",
  "contractName": "ScoreVault",
  "sourceName": "contracts/mock/ScoreVault.sol",
  "abi": [
    {
      "inputs": [
        {
          "internalType": "address",
          "name": "_verifierContract",
          "type": "address"
        },
        {
          "internalType": "address",
          "name": "_trustedForwarder",
          "type": "address"
        }
      ],
      "stateMutability": "nonpayable",
      "type": "constructor"
    },
    {
      "anonymous": false,
      "inputs": [
        {
          "indexed": false,
          "internalType": "address",
          "name": "msgSender",
          "type": "address"
        },
        {
          "indexed": false,
          "internalType": "uint256",
          "name": "count",
          "type": "uint256"
        },
        {
          "indexed": false,
          "internalType": "string",
          "name": "encryptedData",
          "type": "string"
        }
      ],
      "name": "UpdateScore",
      "type": "event"
    },
    {
      "anonymous": false,
      "inputs": [
        {
          "indexed": false,
          "internalType": "address",
          "name": "msgSender",
          "type": "address"
        },
        {
          "indexed": false,
          "internalType": "bool",
          "name": "result",
          "type": "bool"
        }
      ],
      "name": "Verify",
      "type": "event"
    },
    {
      "inputs": [
        {
          "internalType": "address",
          "name": "_address",
          "type": "address"
        }
      ],
      "name": "getScore",
      "outputs": [
        {
          "internalType": "uint256",
          "name": "",
          "type": "uint256"
        },
        {
          "internalType": "string",
          "name": "",
          "type": "string"
        }
      ],
      "stateMutability": "view",
      "type": "function"
    },
    {
      "inputs": [
        {
          "internalType": "address",
          "name": "forwarder",
          "type": "address"
        }
      ],
      "name": "isTrustedForwarder",
      "outputs": [
        {
          "internalType": "bool",
          "name": "",
          "type": "bool"
        }
      ],
      "stateMutability": "view",
      "type": "function"
    },
    {
      "inputs": [
        {
          "internalType": "address",
          "name": "",
          "type": "address"
        }
      ],
      "name": "scores",
      "outputs": [
        {
          "internalType": "uint256",
          "name": "count",
          "type": "uint256"
        },
        {
          "internalType": "string",
          "name": "encryptedData",
          "type": "string"
        }
      ],
      "stateMutability": "view",
      "type": "function"
    },
    {
      "inputs": [
        {
          "internalType": "uint256",
          "name": "_count",
          "type": "uint256"
        },
        {
          "internalType": "string",
          "name": "_encryptedData",
          "type": "string"
        }
      ],
      "name": "setScore",
      "outputs": [],
      "stateMutability": "nonpayable",
      "type": "function"
    },
    {
      "inputs": [],
      "name": "trustedForwarder",
      "outputs": [
        {
          "internalType": "address",
          "name": "",
          "type": "address"
        }
      ],
      "stateMutability": "view",
      "type": "function"
    },
    {
      "inputs": [],
      "name": "verifierContract",
      "outputs": [
        {
          "internalType": "contract IVerifier",
          "name": "",
          "type": "address"
        }
      ],
      "stateMutability": "view",
      "type": "function"
    },
    {
      "inputs": [
        {
          "internalType": "uint256[2]",
          "name": "a",
          "type": "uint256[2]"
        },
        {
          "internalType": "uint256[2][2]",
          "name": "b",
          "type": "uint256[2][2]"
        },
        {
          "internalType": "uint256[2]",
          "name": "c",
          "type": "uint256[2]"
        },
        {
          "internalType": "uint256[2]",
          "name": "input",
          "type": "uint256[2]"
        }
      ],
      "name": "verifyProof",
      "outputs": [
        {
          "internalType": "bool",
          "name": "r",
          "type": "bool"
        }
      ],
      "stateMutability": "nonpayable",
      "type": "function"
    }
  ],
  "bytecode": "0x60c06040523480156200001157600080fd5b50604051620012f7380380620012f7833981810160405281019062000037919062000113565b808073ffffffffffffffffffffffffffffffffffffffff1660808173ffffffffffffffffffffffffffffffffffffffff1681525050508173ffffffffffffffffffffffffffffffffffffffff1660a08173ffffffffffffffffffffffffffffffffffffffff168152505050506200015a565b600080fd5b600073ffffffffffffffffffffffffffffffffffffffff82169050919050565b6000620000db82620000ae565b9050919050565b620000ed81620000ce565b8114620000f957600080fd5b50565b6000815190506200010d81620000e2565b92915050565b600080604083850312156200012d576200012c620000a9565b5b60006200013d85828601620000fc565b92505060206200015085828601620000fc565b9150509250929050565b60805160a051611170620001876000396000818161036601526104a80152600061034001526111706000f3fe608060405234801561001057600080fd5b506004361061007d5760003560e01c80637da0a8771161005b5780637da0a877146100ff578063cf6956881461011d578063d47875d01461013b578063f5c9d69e1461016c5761007d565b806342c54c3614610082578063572b6c051461009e57806376dd110f146100ce575b600080fd5b61009c60048036038101906100979190610767565b61019c565b005b6100b860048036038101906100b39190610821565b610251565b6040516100c59190610869565b60405180910390f35b6100e860048036038101906100e39190610821565b610290565b6040516100f6929190610912565b60405180910390f35b61010761033c565b6040516101149190610951565b60405180910390f35b610125610364565b60405161013291906109cb565b60405180910390f35b61015560048036038101906101509190610821565b610388565b604051610163929190610912565b60405180910390f35b61018660048036038101906101819190610b4d565b6104a4565b6040516101939190610869565b60405180910390f35b6040518060400160405280838152602001828152506000803373ffffffffffffffffffffffffffffffffffffffff1673ffffffffffffffffffffffffffffffffffffffff16815260200190815260200160002060008201518160000155602082015181600101908161020e9190610db8565b509050507ff0a87bc74c0454aea67e54f1538ce1bc17bb8d63f2b6c891e933e1badf934adb33838360405161024593929190610e8a565b60405180910390a15050565b600061025b61033c565b73ffffffffffffffffffffffffffffffffffffffff168273ffffffffffffffffffffffffffffffffffffffff16149050919050565b60006020528060005260406000206000915090508060000154908060010180546102b990610be5565b80601f01602080910402602001604051908101604052809291908181526020018280546102e590610be5565b80156103325780601f1061030757610100808354040283529160200191610332565b820191906000526020600020905b81548152906001019060200180831161031557829003601f168201915b5050505050905082565b60007f0000000000000000000000000000000000000000000000000000000000000000905090565b7f000000000000000000000000000000000000000000000000000000000000000081565b600060606000808473ffffffffffffffffffffffffffffffffffffffff1673ffffffffffffffffffffffffffffffffffffffff168152602001908152602001600020600001546000808573ffffffffffffffffffffffffffffffffffffffff1673ffffffffffffffffffffffffffffffffffffffff16815260200190815260200160002060010180805461041b90610be5565b80601f016020809104026020016040519081016040528092919081815260200182805461044790610be5565b80156104945780601f1061046957610100808354040283529160200191610494565b820191906000526020600020905b81548152906001019060200180831161047757829003601f168201915b5050505050905091509150915091565b60007f000000000000000000000000000000000000000000000000000000000000000073ffffffffffffffffffffffffffffffffffffffff1663f5c9d69e868686866040518563ffffffff1660e01b81526004016105059493929190611071565b6020604051808303816000875af1158015610524573d6000803e3d6000fd5b505050506040513d601f19601f8201168201806040525081019061054891906110e4565b15610590577fc39f49fc22f7d1922b75a440342391c3ce5200f33659fb84711c2b8addefd6bf33600160405161057f929190611111565b60405180910390a1600190506105cf565b7fc39f49fc22f7d1922b75a440342391c3ce5200f33659fb84711c2b8addefd6bf3360006040516105c2929190611111565b60405180910390a1600090505b949350505050565b6000604051905090565b600080fd5b600080fd5b6000819050919050565b6105fe816105eb565b811461060957600080fd5b50565b60008135905061061b816105f5565b92915050565b600080fd5b600080fd5b6000601f19601f8301169050919050565b7f4e487b7100000000000000000000000000000000000000000000000000000000600052604160045260246000fd5b6106748261062b565b810181811067ffffffffffffffff821117156106935761069261063c565b5b80604052505050565b60006106a66105d7565b90506106b2828261066b565b919050565b600067ffffffffffffffff8211156106d2576106d161063c565b5b6106db8261062b565b9050602081019050919050565b82818337600083830152505050565b600061070a610705846106b7565b61069c565b90508281526020810184848401111561072657610725610626565b5b6107318482856106e8565b509392505050565b600082601f83011261074e5761074d610621565b5b813561075e8482602086016106f7565b91505092915050565b6000806040838503121561077e5761077d6105e1565b5b600061078c8582860161060c565b925050602083013567ffffffffffffffff8111156107ad576107ac6105e6565b5b6107b985828601610739565b9150509250929050565b600073ffffffffffffffffffffffffffffffffffffffff82169050919050565b60006107ee826107c3565b9050919050565b6107fe816107e3565b811461080957600080fd5b50565b60008135905061081b816107f5565b92915050565b600060208284031215610837576108366105e1565b5b60006108458482850161080c565b91505092915050565b60008115159050919050565b6108638161084e565b82525050565b600060208201905061087e600083018461085a565b92915050565b61088d816105eb565b82525050565b600081519050919050565b600082825260208201905092915050565b60005b838110156108cd5780820151818401526020810190506108b2565b60008484015250505050565b60006108e482610893565b6108ee818561089e565b93506108fe8185602086016108af565b6109078161062b565b840191505092915050565b60006040820190506109276000830185610884565b818103602083015261093981846108d9565b90509392505050565b61094b816107e3565b82525050565b60006020820190506109666000830184610942565b92915050565b6000819050919050565b600061099161098c610987846107c3565b61096c565b6107c3565b9050919050565b60006109a382610976565b9050919050565b60006109b582610998565b9050919050565b6109c5816109aa565b82525050565b60006020820190506109e060008301846109bc565b92915050565b600067ffffffffffffffff821115610a0157610a0061063c565b5b602082029050919050565b600080fd5b6000610a24610a1f846109e6565b61069c565b90508060208402830185811115610a3e57610a3d610a0c565b5b835b81811015610a675780610a53888261060c565b845260208401935050602081019050610a40565b5050509392505050565b600082601f830112610a8657610a85610621565b5b6002610a93848285610a11565b91505092915050565b600067ffffffffffffffff821115610ab757610ab661063c565b5b602082029050919050565b6000610ad5610ad084610a9c565b61069c565b90508060408402830185811115610aef57610aee610a0c565b5b835b81811015610b185780610b048882610a71565b845260208401935050604081019050610af1565b5050509392505050565b600082601f830112610b3757610b36610621565b5b6002610b44848285610ac2565b91505092915050565b6000806000806101408587031215610b6857610b676105e1565b5b6000610b7687828801610a71565b9450506040610b8787828801610b22565b93505060c0610b9887828801610a71565b925050610100610baa87828801610a71565b91505092959194509250565b7f4e487b7100000000000000000000000000000000000000000000000000000000600052602260045260246000fd5b60006002820490506001821680610bfd57607f821691505b602082108103610c1057610c0f610bb6565b5b50919050565b60008190508160005260206000209050919050565b60006020601f8301049050919050565b600082821b905092915050565b600060088302610c787fffffffffffffffffffffffffffffffffffffffffffffffffffffffffffffffff82610c3b565b610c828683610c3b565b95508019841693508086168417925050509392505050565b6000610cb5610cb0610cab846105eb565b61096c565b6105eb565b9050919050565b6000819050919050565b610ccf83610c9a565b610ce3610cdb82610cbc565b848454610c48565b825550505050565b600090565b610cf8610ceb565b610d03818484610cc6565b505050565b5b81811015610d2757610d1c600082610cf0565b600181019050610d09565b5050565b601f821115610d6c57610d3d81610c16565b610d4684610c2b565b81016020851015610d55578190505b610d69610d6185610c2b565b830182610d08565b50505b505050565b600082821c905092915050565b6000610d8f60001984600802610d71565b1980831691505092915050565b6000610da88383610d7e565b9150826002028217905092915050565b610dc182610893565b67ffffffffffffffff811115610dda57610dd961063c565b5b610de48254610be5565b610def828285610d2b565b600060209050601f831160018114610e225760008415610e10578287015190505b610e1a8582610d9c565b865550610e82565b601f198416610e3086610c16565b60005b82811015610e5857848901518255600182019150602085019450602081019050610e33565b86831015610e755784890151610e71601f891682610d7e565b8355505b6001600288020188555050505b505050505050565b6000606082019050610e9f6000830186610942565b610eac6020830185610884565b8181036040830152610ebe81846108d9565b9050949350505050565b600060029050919050565b600081905092915050565b6000819050919050565b610ef1816105eb565b82525050565b6000610f038383610ee8565b60208301905092915050565b6000602082019050919050565b610f2581610ec8565b610f2f8184610ed3565b9250610f3a82610ede565b8060005b83811015610f6b578151610f528782610ef7565b9650610f5d83610f0f565b925050600181019050610f3e565b505050505050565b600060029050919050565b600081905092915050565b6000819050919050565b600081905092915050565b610fa781610ec8565b610fb18184610f93565b9250610fbc82610ede565b8060005b83811015610fed578151610fd48782610ef7565b9650610fdf83610f0f565b925050600181019050610fc0565b505050505050565b60006110018383610f9e565b60408301905092915050565b6000602082019050919050565b61102381610f73565b61102d8184610f7e565b925061103882610f89565b8060005b838110156110695781516110508782610ff5565b965061105b8361100d565b92505060018101905061103c565b505050505050565b6000610140820190506110876000830187610f1c565b611094604083018661101a565b6110a160c0830185610f1c565b6110af610100830184610f1c565b95945050505050565b6110c18161084e565b81146110cc57600080fd5b50565b6000815190506110de816110b8565b92915050565b6000602082840312156110fa576110f96105e1565b5b6000611108848285016110cf565b91505092915050565b60006040820190506111266000830185610942565b611133602083018461085a565b939250505056fea26469706673582212206b301157f76d97dd105b3848bc997c8966f5f8ca6bd6727ee54828b8334a716c64736f6c63430008140033",
  "linkReferences": {},
  "deployedLinkReferences": {}
}